{
  "contractName": "SmartToken",
  "abi": [
    {
      "anonymous": false,
      "inputs": [
        {
          "indexed": true,
          "name": "sender",
          "type": "address"
        },
        {
          "indexed": false,
          "name": "value",
          "type": "uint256"
        }
      ],
      "name": "OnValueChanged",
      "type": "event"
    },
    {
      "constant": false,
      "inputs": [
        {
          "name": "receiver",
          "type": "address"
        },
        {
          "name": "value",
          "type": "uint256"
        }
      ],
      "name": "depositToken",
      "outputs": [
        {
          "name": "success",
          "type": "bool"
        }
      ],
      "payable": false,
      "stateMutability": "nonpayable",
      "type": "function"
    },
    {
      "constant": false,
      "inputs": [
        {
          "name": "receiver",
          "type": "address"
        },
        {
          "name": "value",
          "type": "uint256"
        }
      ],
      "name": "withdrawToken",
      "outputs": [
        {
          "name": "success",
          "type": "bool"
        }
      ],
      "payable": false,
      "stateMutability": "nonpayable",
      "type": "function"
    },
    {
      "constant": true,
      "inputs": [
        {
          "name": "receiver",
          "type": "address"
        }
      ],
      "name": "getTokens",
      "outputs": [
        {
          "name": "value",
          "type": "uint256"
        }
      ],
      "payable": false,
      "stateMutability": "view",
      "type": "function"
    }
  ],
  "bytecode": "0x608060405234801561001057600080fd5b5061044b806100206000396000f300608060405260043610610057576000357c0100000000000000000000000000000000000000000000000000000000900463ffffffff168063338b5dea1461005c578063450efe21146100c15780639e281a9814610118575b600080fd5b34801561006857600080fd5b506100a7600480360381019080803573ffffffffffffffffffffffffffffffffffffffff1690602001909291908035906020019092919050505061017d565b604051808215151515815260200191505060405180910390f35b3480156100cd57600080fd5b50610102600480360381019080803573ffffffffffffffffffffffffffffffffffffffff169060200190929190505050610261565b6040518082815260200191505060405180910390f35b34801561012457600080fd5b50610163600480360381019080803573ffffffffffffffffffffffffffffffffffffffff169060200190929190803590602001909291905050506102a9565b604051808215151515815260200191505060405180910390f35b6000816000808573ffffffffffffffffffffffffffffffffffffffff1673ffffffffffffffffffffffffffffffffffffffff168152602001908152602001600020600082825401925050819055508273ffffffffffffffffffffffffffffffffffffffff167f65dce515c55eb8d94c3ec733006907bb1a555ef5fb2ab7227019830d4f90a2596000808673ffffffffffffffffffffffffffffffffffffffff1673ffffffffffffffffffffffffffffffffffffffff168152602001908152602001600020546040518082815260200191505060405180910390a26001905092915050565b60008060008373ffffffffffffffffffffffffffffffffffffffff1673ffffffffffffffffffffffffffffffffffffffff168152602001908152602001600020549050919050565b600080826000808673ffffffffffffffffffffffffffffffffffffffff1673ffffffffffffffffffffffffffffffffffffffff1681526020019081526020016000205403101561033c5760008060008573ffffffffffffffffffffffffffffffffffffffff1673ffffffffffffffffffffffffffffffffffffffff16815260200190815260200160002081905550610389565b816000808573ffffffffffffffffffffffffffffffffffffffff1673ffffffffffffffffffffffffffffffffffffffff168152602001908152602001600020600082825403925050819055505b8273ffffffffffffffffffffffffffffffffffffffff167f65dce515c55eb8d94c3ec733006907bb1a555ef5fb2ab7227019830d4f90a2596000808673ffffffffffffffffffffffffffffffffffffffff1673ffffffffffffffffffffffffffffffffffffffff168152602001908152602001600020546040518082815260200191505060405180910390a260019050929150505600a165627a7a7230582097937ae9b019380be0f98db56a3b8de6c7235967afa67da6db98d0d04b5ed1600029",
  "source": "pragma solidity ^0.4.18;\n\ncontract SmartToken {\n\tmapping(address => uint) tokens;\n\t\n\tevent OnValueChanged(address indexed sender, uint value);\n\t\n\tfunction depositToken(address receiver, uint value) returns (bool success) {\n\t\ttokens[receiver] += value;\n\t\tOnValueChanged(receiver, tokens[receiver]);\n\t\treturn true;\n\t}\n\tfunction withdrawToken(address receiver, uint value) returns (bool success) {\n\t\tif ((tokens[receiver] - value) < 0) {\n\t\t\ttokens[receiver] = 0;\n\t\t} else {\n\t\t\ttokens[receiver] -= value;\n\t\t}\n\t\tOnValueChanged(receiver, tokens[receiver]);\n\t\treturn true;\n\t}\n\tfunction getTokens(address receiver) constant returns (uint value) {\n\t\treturn tokens[receiver];\n\t}\n}\n",
  "sourcePath": "/home/pi/Desktop/Github/Blockchain_dev/Projects/SmartToken/contracts/SmartToken.sol",
  "compiler": {
    "name": "solc",
    "version": "0.4.26+commit.4563c3fc.Emscripten.clang"
  },
  "schemaVersion": "3.1.0",
  "updatedAt": "2020-06-06T16:28:27.530Z",
  "networkType": "ethereum",
  "devdoc": {
    "methods": {}
  },
  "userdoc": {
    "methods": {}
  }
}